{
  "contractName": "FairCrowdPrice",
  "abi": [
    {
      "inputs": [],
      "stateMutability": "payable",
      "type": "constructor",
      "payable": true
    },
    {
      "anonymous": false,
      "inputs": [
        {
          "components": [
            {
              "internalType": "address",
              "name": "keeper",
              "type": "address"
            },
            {
              "internalType": "uint256",
              "name": "price",
              "type": "uint256"
            },
            {
              "internalType": "uint256",
              "name": "timestamp",
              "type": "uint256"
            }
          ],
          "indexed": false,
          "internalType": "struct FairCrowdPrice.FairPrice",
          "name": "_fp",
          "type": "tuple"
        }
      ],
      "name": "NewData",
      "type": "event"
    },
    {
      "anonymous": false,
      "inputs": [
        {
          "indexed": false,
          "internalType": "address",
          "name": "_keeper",
          "type": "address"
        },
        {
          "indexed": false,
          "internalType": "uint256",
          "name": "_reward",
          "type": "uint256"
        },
        {
          "indexed": false,
          "internalType": "uint256",
          "name": "_timestamp",
          "type": "uint256"
        }
      ],
      "name": "Winner",
      "type": "event"
    },
    {
      "stateMutability": "payable",
      "type": "fallback",
      "payable": true
    },
    {
      "inputs": [
        {
          "internalType": "uint256",
          "name": "",
          "type": "uint256"
        }
      ],
      "name": "fairPrices",
      "outputs": [
        {
          "internalType": "address",
          "name": "keeper",
          "type": "address"
        },
        {
          "internalType": "uint256",
          "name": "price",
          "type": "uint256"
        },
        {
          "internalType": "uint256",
          "name": "timestamp",
          "type": "uint256"
        }
      ],
      "stateMutability": "view",
      "type": "function",
      "constant": true
    },
    {
      "stateMutability": "payable",
      "type": "receive",
      "payable": true
    },
    {
      "inputs": [],
      "name": "addLiquidity",
      "outputs": [],
      "stateMutability": "payable",
      "type": "function",
      "payable": true
    },
    {
      "inputs": [],
      "name": "getBalance",
      "outputs": [
        {
          "internalType": "uint256",
          "name": "b",
          "type": "uint256"
        }
      ],
      "stateMutability": "view",
      "type": "function",
      "constant": true
    },
    {
      "inputs": [
        {
          "internalType": "uint256",
          "name": "_price",
          "type": "uint256"
        }
      ],
      "name": "setPrice",
      "outputs": [],
      "stateMutability": "payable",
      "type": "function",
      "payable": true
    }
  ],
  "bytecode": "0x60806040523073ffffffffffffffffffffffffffffffffffffffff166108fc349081150290604051600060405180830381858888f1935050505015801561004a573d6000803e3d6000fd5b506104c48061005a6000396000f3fe6080604052600436106100435760003560e01c806312065fe01461004c57806391b7f5ed146100775780639c78bc6814610093578063e8078d94146100d25761004a565b3661004a57005b005b34801561005857600080fd5b506100616100dc565b60405161006e9190610420565b60405180910390f35b610091600480360381019061008c9190610327565b6100e4565b005b34801561009f57600080fd5b506100ba60048036038101906100b59190610327565b610223565b6040516100c9939291906103ce565b60405180910390f35b6100da61027d565b005b600047905090565b600060405180606001604052803373ffffffffffffffffffffffffffffffffffffffff168152602001838152602001428152509050600081908060018154018082558091505060019003906000526020600020906003020160009091909190915060008201518160000160006101000a81548173ffffffffffffffffffffffffffffffffffffffff021916908373ffffffffffffffffffffffffffffffffffffffff160217905550602082015181600101556040820151816002015550506101ab336102c6565b7f04d5cef3dc5b930f366f68650879974bb8fd0a40bafe47218e76d3b4009eb6c9816040516101da9190610405565b60405180910390a17f83180aa4ac63459a0857ee4be800e29aa03c2426bdb949e15826b88ef0c668a2336103e842604051610217939291906103ce565b60405180910390a15050565b6000818154811061023357600080fd5b90600052602060002090600302016000915090508060000160009054906101000a900473ffffffffffffffffffffffffffffffffffffffff16908060010154908060020154905083565b3073ffffffffffffffffffffffffffffffffffffffff166108fc349081150290604051600060405180830381858888f193505050501580156102c3573d6000803e3d6000fd5b50565b8073ffffffffffffffffffffffffffffffffffffffff166108fc6103e89081150290604051600060405180830381858888f1935050505015801561030e573d6000803e3d6000fd5b5050565b60008135905061032181610477565b92915050565b60006020828403121561033957600080fd5b600061034784828501610312565b91505092915050565b6103598161043b565b82525050565b6103688161043b565b82525050565b6060820160008201516103846000850182610350565b50602082015161039760208501826103b0565b5060408201516103aa60408501826103b0565b50505050565b6103b98161046d565b82525050565b6103c88161046d565b82525050565b60006060820190506103e3600083018661035f565b6103f060208301856103bf565b6103fd60408301846103bf565b949350505050565b600060608201905061041a600083018461036e565b92915050565b600060208201905061043560008301846103bf565b92915050565b60006104468261044d565b9050919050565b600073ffffffffffffffffffffffffffffffffffffffff82169050919050565b6000819050919050565b6104808161046d565b811461048b57600080fd5b5056fea2646970667358221220ff63512fa013d53a9906e22ea2822bcda80d42fb7d00d29270cc8ec66f824fd864736f6c63430008040033",
  "immutableReferences": {},
  "source": "pragma solidity >=0.7.0 <0.9.0;\n\ncontract FairCrowdPrice {\n    \n    struct FairPrice {\n        address keeper;\n        uint256 price;\n        uint256 timestamp;\n    }\n    \n    FairPrice[] public fairPrices;\n    uint256 constant reward = 1000;\n    address  payable test;\n    \n    event NewData(FairPrice _fp);\n    event Winner (address _keeper, uint256 _reward, uint _timestamp);\n    \n    receive () external payable {}\n    fallback () external payable {}\n     \n  \n    constructor() payable {\n       payable(address(this)).transfer(msg.value);\n    }\n    \n    function addLiquidity() external payable {\n        payable(address(this)).transfer(msg.value);\n    }\n\n    function getBalance() public view returns (uint256 b) { \n        return  address(this).balance; \n    }\n\n    function setPrice(uint256 _price)  external payable {\n\n        FairPrice memory fp = FairPrice(msg.sender, _price, block.timestamp);\n        fairPrices.push(fp);\n        \n        giveReward(payable(msg.sender));\n        \n        emit NewData(fp);\n        emit Winner (msg.sender, reward, block.timestamp);\n    }\n    \n    function giveReward (address payable to) internal {\n        to.transfer(reward);\n    }\n    \n    \n}",
  "sourcePath": "/Users/mkashif/Documents/tests/keeper-dashboard/contracts/FairCrowdPrice.sol",
  "compiler": {
    "name": "solc",
    "version": "0.8.4+commit.c7e474f2.Emscripten.clang"
  },
  "schemaVersion": "3.4.1",
  "updatedAt": "2021-06-27T09:07:14.814Z",
  "networkType": "ethereum",
  "devdoc": {
    "kind": "dev",
    "methods": {},
    "version": 1
  },
  "userdoc": {
    "kind": "user",
    "methods": {},
    "version": 1
  }
}